{
  "contractName": "ChangeOwnership",
  "abi": [
    {
      "inputs": [
        {
          "internalType": "address",
          "name": "prod_contract_addr",
          "type": "address"
        }
      ],
      "payable": false,
      "stateMutability": "nonpayable",
      "type": "constructor"
    },
    {
      "anonymous": false,
      "inputs": [
        {
          "indexed": true,
          "internalType": "bytes32",
          "name": "p",
          "type": "bytes32"
        },
        {
          "indexed": true,
          "internalType": "address",
          "name": "account",
          "type": "address"
        }
      ],
      "name": "TransferPartOwnership",
      "type": "event"
    },
    {
      "anonymous": false,
      "inputs": [
        {
          "indexed": true,
          "internalType": "bytes32",
          "name": "p",
          "type": "bytes32"
        },
        {
          "indexed": true,
          "internalType": "address",
          "name": "account",
          "type": "address"
        }
      ],
      "name": "TransferProductOwnership",
      "type": "event"
    },
    {
      "constant": true,
      "inputs": [
        {
          "internalType": "bytes32",
          "name": "",
          "type": "bytes32"
        }
      ],
      "name": "currentPartOwner",
      "outputs": [
        {
          "internalType": "address",
          "name": "",
          "type": "address"
        }
      ],
      "payable": false,
      "stateMutability": "view",
      "type": "function"
    },
    {
      "constant": true,
      "inputs": [
        {
          "internalType": "bytes32",
          "name": "",
          "type": "bytes32"
        }
      ],
      "name": "currentProductOwner",
      "outputs": [
        {
          "internalType": "address",
          "name": "",
          "type": "address"
        }
      ],
      "payable": false,
      "stateMutability": "view",
      "type": "function"
    },
    {
      "constant": false,
      "inputs": [
        {
          "internalType": "uint256",
          "name": "op_type",
          "type": "uint256"
        },
        {
          "internalType": "bytes32",
          "name": "p_hash",
          "type": "bytes32"
        }
      ],
      "name": "addOwnership",
      "outputs": [
        {
          "internalType": "bool",
          "name": "",
          "type": "bool"
        }
      ],
      "payable": false,
      "stateMutability": "nonpayable",
      "type": "function"
    },
    {
      "constant": false,
      "inputs": [
        {
          "internalType": "uint256",
          "name": "op_type",
          "type": "uint256"
        },
        {
          "internalType": "bytes32",
          "name": "p_hash",
          "type": "bytes32"
        },
        {
          "internalType": "address",
          "name": "to",
          "type": "address"
        }
      ],
      "name": "changeOwnership",
      "outputs": [
        {
          "internalType": "bool",
          "name": "",
          "type": "bool"
        }
      ],
      "payable": false,
      "stateMutability": "nonpayable",
      "type": "function"
    }
  ],
  "bytecode": "0x608060405234801561001057600080fd5b506040516112813803806112818339818101604052602081101561003357600080fd5b810190808051906020019092919050505080600260006101000a81548173ffffffffffffffffffffffffffffffffffffffff021916908373ffffffffffffffffffffffffffffffffffffffff160217905550506111ec806100956000396000f3fe608060405234801561001057600080fd5b506004361061004c5760003560e01c806379ab6eba146100515780637db5a2bc146100bf578063ac8144901461010f578063f0fddc941461017f575b600080fd5b61007d6004803603602081101561006757600080fd5b81019080803590602001909291905050506101ed565b604051808273ffffffffffffffffffffffffffffffffffffffff1673ffffffffffffffffffffffffffffffffffffffff16815260200191505060405180910390f35b6100f5600480360360408110156100d557600080fd5b810190808035906020019092919080359060200190929190505050610220565b604051808215151515815260200191505060405180910390f35b6101656004803603606081101561012557600080fd5b810190808035906020019092919080359060200190929190803573ffffffffffffffffffffffffffffffffffffffff169060200190929190505050610c30565b604051808215151515815260200191505060405180910390f35b6101ab6004803603602081101561019557600080fd5b8101908080359060200190929190505050611142565b604051808273ffffffffffffffffffffffffffffffffffffffff1673ffffffffffffffffffffffffffffffffffffffff16815260200191505060405180910390f35b60006020528060005260406000206000915054906101000a900473ffffffffffffffffffffffffffffffffffffffff1681565b600080600181111561022e57fe5b831415610735576000600260009054906101000a900473ffffffffffffffffffffffffffffffffffffffff1673ffffffffffffffffffffffffffffffffffffffff16638c431b9f846040518263ffffffff1660e01b81526004018082815260200191505060006040518083038186803b1580156102aa57600080fd5b505afa1580156102be573d6000803e3d6000fd5b505050506040513d6000823e3d601f19601f8201168201806040525060808110156102e857600080fd5b81019080805190602001909291908051604051939291908464010000000082111561031257600080fd5b8382019150602082018581111561032857600080fd5b825186600182028301116401000000008211171561034557600080fd5b8083526020830192505050908051906020019080838360005b8381101561037957808201518184015260208101905061035e565b50505050905090810190601f1680156103a65780820380516001836020036101000a031916815260200191505b50604052602001805160405193929190846401000000008211156103c957600080fd5b838201915060208201858111156103df57600080fd5b82518660018202830111640100000000821117156103fc57600080fd5b8083526020830192505050908051906020019080838360005b83811015610430578082015181840152602081019050610415565b50505050905090810190601f16801561045d5780820380516001836020036101000a031916815260200191505b506040526020018051604051939291908464010000000082111561048057600080fd5b8382019150602082018581111561049657600080fd5b82518660018202830111640100000000821117156104b357600080fd5b8083526020830192505050908051906020019080838360005b838110156104e75780820151818401526020810190506104cc565b50505050905090810190601f1680156105145780820380516001836020036101000a031916815260200191505b5060405250505090915090505080915050600073ffffffffffffffffffffffffffffffffffffffff1660008085815260200190815260200160002060009054906101000a900473ffffffffffffffffffffffffffffffffffffffff1673ffffffffffffffffffffffffffffffffffffffff16146105f9576040517f08c379a000000000000000000000000000000000000000000000000000000000815260040180806020018281038252601b8152602001807f506172742077617320616c72656164792072656769737465726564000000000081525060200191505060405180910390fd5b3373ffffffffffffffffffffffffffffffffffffffff168173ffffffffffffffffffffffffffffffffffffffff161461069a576040517f08c379a000000000000000000000000000000000000000000000000000000000815260040180806020018281038252601e8152602001807f5061727420776173206e6f74206d61646520627920726571756573746572000081525060200191505060405180910390fd5b3360008085815260200190815260200160002060006101000a81548173ffffffffffffffffffffffffffffffffffffffff021916908373ffffffffffffffffffffffffffffffffffffffff1602179055503373ffffffffffffffffffffffffffffffffffffffff16837f6a67eae68bb9deea9cbb16299fce22702092dc03cbcfd6a7babc7ac0036c7d4b60405160405180910390a350610c2a565b60018081111561074157fe5b831415610c29576000600260009054906101000a900473ffffffffffffffffffffffffffffffffffffffff1673ffffffffffffffffffffffffffffffffffffffff166379054391846040518263ffffffff1660e01b81526004018082815260200191505060006040518083038186803b1580156107bd57600080fd5b505afa1580156107d1573d6000803e3d6000fd5b505050506040513d6000823e3d601f19601f8201168201806040525060808110156107fb57600080fd5b81019080805190602001909291908051604051939291908464010000000082111561082557600080fd5b8382019150602082018581111561083b57600080fd5b825186600182028301116401000000008211171561085857600080fd5b8083526020830192505050908051906020019080838360005b8381101561088c578082015181840152602081019050610871565b50505050905090810190601f1680156108b95780820380516001836020036101000a031916815260200191505b50604052602001805160405193929190846401000000008211156108dc57600080fd5b838201915060208201858111156108f257600080fd5b825186600182028301116401000000008211171561090f57600080fd5b8083526020830192505050908051906020019080838360005b83811015610943578082015181840152602081019050610928565b50505050905090810190601f1680156109705780820380516001836020036101000a031916815260200191505b506040526020018051604051939291908464010000000082111561099357600080fd5b838201915060208201858111156109a957600080fd5b82518660018202830111640100000000821117156109c657600080fd5b8083526020830192505050908051906020019080838360005b838110156109fa5780820151818401526020810190506109df565b50505050905090810190601f168015610a275780820380516001836020036101000a031916815260200191505b5060405250505090915090505080915050600073ffffffffffffffffffffffffffffffffffffffff166001600085815260200190815260200160002060009054906101000a900473ffffffffffffffffffffffffffffffffffffffff1673ffffffffffffffffffffffffffffffffffffffff1614610b0d576040517f08c379a000000000000000000000000000000000000000000000000000000000815260040180806020018281038252601e8152602001807f50726f647563742077617320616c72656164792072656769737465726564000081525060200191505060405180910390fd5b3373ffffffffffffffffffffffffffffffffffffffff168173ffffffffffffffffffffffffffffffffffffffff1614610b91576040517f08c379a00000000000000000000000000000000000000000000000000000000081526004018080602001828103825260218152602001806111766021913960400191505060405180910390fd5b336001600085815260200190815260200160002060006101000a81548173ffffffffffffffffffffffffffffffffffffffff021916908373ffffffffffffffffffffffffffffffffffffffff1602179055503373ffffffffffffffffffffffffffffffffffffffff16837fe2d5b74efaa0dc370d71f08be6bc6c865613194b7345262a998fb5232622c0b260405160405180910390a3505b5b92915050565b6000806001811115610c3e57fe5b841415610db2573373ffffffffffffffffffffffffffffffffffffffff1660008085815260200190815260200160002060009054906101000a900473ffffffffffffffffffffffffffffffffffffffff1673ffffffffffffffffffffffffffffffffffffffff1614610d18576040517f08c379a000000000000000000000000000000000000000000000000000000000815260040180806020018281038252601e8152602001807f50617274206973206e6f74206f776e656420627920726571756573746572000081525060200191505060405180910390fd5b8160008085815260200190815260200160002060006101000a81548173ffffffffffffffffffffffffffffffffffffffff021916908373ffffffffffffffffffffffffffffffffffffffff1602179055508173ffffffffffffffffffffffffffffffffffffffff16837f6a67eae68bb9deea9cbb16299fce22702092dc03cbcfd6a7babc7ac0036c7d4b60405160405180910390a361113b565b600180811115610dbe57fe5b84141561113a573373ffffffffffffffffffffffffffffffffffffffff166001600085815260200190815260200160002060009054906101000a900473ffffffffffffffffffffffffffffffffffffffff1673ffffffffffffffffffffffffffffffffffffffff1614610e7c576040517f08c379a00000000000000000000000000000000000000000000000000000000081526004018080602001828103825260218152602001806111976021913960400191505060405180910390fd5b816001600085815260200190815260200160002060006101000a81548173ffffffffffffffffffffffffffffffffffffffff021916908373ffffffffffffffffffffffffffffffffffffffff1602179055508173ffffffffffffffffffffffffffffffffffffffff16837fe2d5b74efaa0dc370d71f08be6bc6c865613194b7345262a998fb5232622c0b260405160405180910390a36060600260009054906101000a900473ffffffffffffffffffffffffffffffffffffffff1673ffffffffffffffffffffffffffffffffffffffff16636e730329856040518263ffffffff1660e01b815260040180828152602001915050600060405180830381600087803b158015610f8957600080fd5b505af1158015610f9d573d6000803e3d6000fd5b505050506040513d6000823e3d601f19601f820116820180604052506020811015610fc757600080fd5b8101908080516040519392919084640100000000821115610fe757600080fd5b83820191506020820185811115610ffd57600080fd5b825186602082028301116401000000008211171561101a57600080fd5b8083526020830192505050908051906020019060200280838360005b83811015611051578082015181840152602081019050611036565b50505050905001604052505050905060008090505b8151811015611137578360008084848151811061107f57fe5b6020026020010151815260200190815260200160002060006101000a81548173ffffffffffffffffffffffffffffffffffffffff021916908373ffffffffffffffffffffffffffffffffffffffff1602179055508373ffffffffffffffffffffffffffffffffffffffff168282815181106110f657fe5b60200260200101517f6a67eae68bb9deea9cbb16299fce22702092dc03cbcfd6a7babc7ac0036c7d4b60405160405180910390a38080600101915050611066565b50505b5b9392505050565b60016020528060005260406000206000915054906101000a900473ffffffffffffffffffffffffffffffffffffffff168156fe50726f6475637420776173206e6f74206d6164652062792072657175657374657250726f64756374206973206e6f74206f776e656420627920726571756573746572a265627a7a7231582041c8a6d9a2262e52f48753c7b67d071e1c52262c5c7b2fa2d783369f5d7d44f664736f6c63430005100032",
  "source": "pragma solidity >=0.4.21 <0.6.0;\r\n\r\n//Add ProductManagement ABI to allow calls\r\ncontract ProductManagement{\r\n    struct Part{\r\n        address manufacturer;\r\n        string serial_number;\r\n        string part_type;\r\n        string creation_date;\r\n    }\r\n\r\n    struct Product{\r\n        address manufacturer;\r\n        string serial_number;\r\n        string product_type;\r\n        string creation_date;\r\n        bytes32[] parts;\r\n    }\r\n\r\n    mapping(bytes32 => Part) public parts;\r\n    mapping(bytes32 => Product) public products;\r\n\r\n    function getParts(bytes32 product_hash) public returns (bytes32[] memory) {}\r\n}\r\n\r\ncontract ChangeOwnership {\r\n\r\n    enum OperationType {PART, PRODUCT}\r\n    mapping(bytes32 => address) public currentPartOwner;\r\n    mapping(bytes32 => address) public currentProductOwner;\r\n\r\n    event TransferPartOwnership(bytes32 indexed p, address indexed account);\r\n    event TransferProductOwnership(bytes32 indexed p, address indexed account);\r\n    ProductManagement private pm;\r\n\r\n    constructor(address prod_contract_addr) public {\r\n        //Just create a new auxiliary contract. We will use it to check if the part or product really exist\r\n        pm = ProductManagement(prod_contract_addr);\r\n    }\r\n\r\n    function addOwnership(uint op_type, bytes32 p_hash) public returns (bool) {\r\n        if(op_type == uint(OperationType.PART)){\r\n            address manufacturer;\r\n            (manufacturer, , , ) = pm.parts(p_hash);\r\n            require(currentPartOwner[p_hash] == address(0), \"Part was already registered\");\r\n            require(manufacturer == msg.sender, \"Part was not made by requester\");\r\n            currentPartOwner[p_hash] = msg.sender;\r\n            emit TransferPartOwnership(p_hash, msg.sender);\r\n        } else if (op_type == uint(OperationType.PRODUCT)){\r\n            address manufacturer;\r\n            (manufacturer, , , ) = pm.products(p_hash);\r\n            require(currentProductOwner[p_hash] == address(0), \"Product was already registered\");\r\n            require(manufacturer == msg.sender, \"Product was not made by requester\");\r\n            currentProductOwner[p_hash] = msg.sender;\r\n            emit TransferProductOwnership(p_hash, msg.sender);\r\n        }\r\n    }\r\n\r\n    function changeOwnership(uint op_type, bytes32 p_hash, address to) public returns (bool) {\r\n      //Check if the element exists and belongs to the user requesting ownership change\r\n        if(op_type == uint(OperationType.PART)){\r\n            require(currentPartOwner[p_hash] == msg.sender, \"Part is not owned by requester\");\r\n            currentPartOwner[p_hash] = to;\r\n            emit TransferPartOwnership(p_hash, to);\r\n        } else if (op_type == uint(OperationType.PRODUCT)){\r\n            require(currentProductOwner[p_hash] == msg.sender, \"Product is not owned by requester\");\r\n            currentProductOwner[p_hash] = to;\r\n            emit TransferProductOwnership(p_hash, to);\r\n            //Change part ownership too\r\n            bytes32[] memory part_list = pm.getParts(p_hash);\r\n            for(uint i = 0; i < part_list.length; i++){\r\n                currentPartOwner[part_list[i]] = to;\r\n                emit TransferPartOwnership(part_list[i], to);\r\n            }\r\n\r\n        }\r\n    }\r\n}\r\n",
  "sourcePath": "C:/Users/ROHAN/Desktop/btp/ethereum-supply-chain/contracts/ChangeOwnership.sol",
  "compiler": {
    "name": "solc",
    "version": "0.5.16+commit.9c3226ce.Emscripten.clang"
  },
  "schemaVersion": "3.3.3",
  "updatedAt": "2020-12-23T14:59:00.695Z",
  "networkType": "ethereum",
  "devdoc": {
    "methods": {}
  },
  "userdoc": {
    "methods": {}
  }
}