{
  "contractName": "ProductManagement",
  "abi": [
    {
      "inputs": [],
      "payable": false,
      "stateMutability": "nonpayable",
      "type": "constructor"
    },
    {
      "constant": true,
      "inputs": [
        {
          "internalType": "bytes32",
          "name": "",
          "type": "bytes32"
        }
      ],
      "name": "parts",
      "outputs": [
        {
          "internalType": "address",
          "name": "manufacturer",
          "type": "address"
        },
        {
          "internalType": "string",
          "name": "serial_number",
          "type": "string"
        },
        {
          "internalType": "string",
          "name": "part_type",
          "type": "string"
        },
        {
          "internalType": "string",
          "name": "creation_date",
          "type": "string"
        }
      ],
      "payable": false,
      "stateMutability": "view",
      "type": "function"
    },
    {
      "constant": true,
      "inputs": [
        {
          "internalType": "bytes32",
          "name": "",
          "type": "bytes32"
        }
      ],
      "name": "products",
      "outputs": [
        {
          "internalType": "address",
          "name": "manufacturer",
          "type": "address"
        },
        {
          "internalType": "string",
          "name": "serial_number",
          "type": "string"
        },
        {
          "internalType": "string",
          "name": "product_type",
          "type": "string"
        },
        {
          "internalType": "string",
          "name": "creation_date",
          "type": "string"
        }
      ],
      "payable": false,
      "stateMutability": "view",
      "type": "function"
    },
    {
      "constant": false,
      "inputs": [
        {
          "internalType": "string",
          "name": "serial_number",
          "type": "string"
        },
        {
          "internalType": "string",
          "name": "part_type",
          "type": "string"
        },
        {
          "internalType": "string",
          "name": "creation_date",
          "type": "string"
        }
      ],
      "name": "buildPart",
      "outputs": [
        {
          "internalType": "bytes32",
          "name": "",
          "type": "bytes32"
        }
      ],
      "payable": false,
      "stateMutability": "nonpayable",
      "type": "function"
    },
    {
      "constant": false,
      "inputs": [
        {
          "internalType": "string",
          "name": "serial_number",
          "type": "string"
        },
        {
          "internalType": "string",
          "name": "product_type",
          "type": "string"
        },
        {
          "internalType": "string",
          "name": "creation_date",
          "type": "string"
        },
        {
          "internalType": "bytes32[]",
          "name": "part_array",
          "type": "bytes32[]"
        }
      ],
      "name": "buildProduct",
      "outputs": [
        {
          "internalType": "bytes32",
          "name": "",
          "type": "bytes32"
        }
      ],
      "payable": false,
      "stateMutability": "nonpayable",
      "type": "function"
    },
    {
      "constant": false,
      "inputs": [
        {
          "internalType": "bytes32",
          "name": "product_hash",
          "type": "bytes32"
        }
      ],
      "name": "getParts",
      "outputs": [
        {
          "internalType": "bytes32[]",
          "name": "",
          "type": "bytes32[]"
        }
      ],
      "payable": false,
      "stateMutability": "nonpayable",
      "type": "function"
    }
  ],
  "bytecode": "0x608060405234801561001057600080fd5b506117da806100206000396000f3fe608060405234801561001057600080fd5b50600436106100575760003560e01c8063496cdead1461005c5780636e730329146102ed57806379054391146103705780638c431b9f14610522578063b9c2dc3a146106d4575b600080fd5b6102d76004803603608081101561007257600080fd5b810190808035906020019064010000000081111561008f57600080fd5b8201836020820111156100a157600080fd5b803590602001918460018302840111640100000000831117156100c357600080fd5b91908080601f016020809104026020016040519081016040528093929190818152602001838380828437600081840152601f19601f8201169050808301925050505050505091929192908035906020019064010000000081111561012657600080fd5b82018360208201111561013857600080fd5b8035906020019184600183028401116401000000008311171561015a57600080fd5b91908080601f016020809104026020016040519081016040528093929190818152602001838380828437600081840152601f19601f820116905080830192505050505050509192919290803590602001906401000000008111156101bd57600080fd5b8201836020820111156101cf57600080fd5b803590602001918460018302840111640100000000831117156101f157600080fd5b91908080601f016020809104026020016040519081016040528093929190818152602001838380828437600081840152601f19601f8201169050808301925050505050505091929192908035906020019064010000000081111561025457600080fd5b82018360208201111561026657600080fd5b8035906020019184602083028401116401000000008311171561028857600080fd5b919080806020026020016040519081016040528093929190818152602001838360200280828437600081840152601f19601f8201169050808301925050505050505091929192905050506108d1565b6040518082815260200191505060405180910390f35b6103196004803603602081101561030357600080fd5b8101908080359060200190929190505050610c61565b6040518080602001828103825283818151815260200191508051906020019060200280838360005b8381101561035c578082015181840152602081019050610341565b505050509050019250505060405180910390f35b61039c6004803603602081101561038657600080fd5b8101908080359060200190929190505050610da8565b604051808573ffffffffffffffffffffffffffffffffffffffff1673ffffffffffffffffffffffffffffffffffffffff168152602001806020018060200180602001848103845287818151815260200191508051906020019080838360005b838110156104165780820151818401526020810190506103fb565b50505050905090810190601f1680156104435780820380516001836020036101000a031916815260200191505b50848103835286818151815260200191508051906020019080838360005b8381101561047c578082015181840152602081019050610461565b50505050905090810190601f1680156104a95780820380516001836020036101000a031916815260200191505b50848103825285818151815260200191508051906020019080838360005b838110156104e25780820151818401526020810190506104c7565b50505050905090810190601f16801561050f5780820380516001836020036101000a031916815260200191505b5097505050505050505060405180910390f35b61054e6004803603602081101561053857600080fd5b8101908080359060200190929190505050610fc0565b604051808573ffffffffffffffffffffffffffffffffffffffff1673ffffffffffffffffffffffffffffffffffffffff168152602001806020018060200180602001848103845287818151815260200191508051906020019080838360005b838110156105c85780820151818401526020810190506105ad565b50505050905090810190601f1680156105f55780820380516001836020036101000a031916815260200191505b50848103835286818151815260200191508051906020019080838360005b8381101561062e578082015181840152602081019050610613565b50505050905090810190601f16801561065b5780820380516001836020036101000a031916815260200191505b50848103825285818151815260200191508051906020019080838360005b83811015610694578082015181840152602081019050610679565b50505050905090810190601f1680156106c15780820380516001836020036101000a031916815260200191505b5097505050505050505060405180910390f35b6108bb600480360360608110156106ea57600080fd5b810190808035906020019064010000000081111561070757600080fd5b82018360208201111561071957600080fd5b8035906020019184600183028401116401000000008311171561073b57600080fd5b91908080601f016020809104026020016040519081016040528093929190818152602001838380828437600081840152601f19601f8201169050808301925050505050505091929192908035906020019064010000000081111561079e57600080fd5b8201836020820111156107b057600080fd5b803590602001918460018302840111640100000000831117156107d257600080fd5b91908080601f016020809104026020016040519081016040528093929190818152602001838380828437600081840152601f19601f8201169050808301925050505050505091929192908035906020019064010000000081111561083557600080fd5b82018360208201111561084757600080fd5b8035906020019184600183028401116401000000008311171561086957600080fd5b91908080601f016020809104026020016040519081016040528093929190818152602001838380828437600081840152601f19601f8201169050808301925050505050505091929192905050506111d8565b6040518082815260200191505060405180910390f35b60008060018351101561094c576040517f08c379a00000000000000000000000000000000000000000000000000000000081526004018080602001828103825260118152602001807f6e6f20647275677320696e206f7264657200000000000000000000000000000081525060200191505060405180910390fd5b600090505b8251811015610a5257600073ffffffffffffffffffffffffffffffffffffffff1660008085848151811061098157fe5b6020026020010151815260200190815260200160002060000160009054906101000a900473ffffffffffffffffffffffffffffffffffffffff1673ffffffffffffffffffffffffffffffffffffffff161415610a45576040517f08c379a000000000000000000000000000000000000000000000000000000000815260040180806020018281038252601f8152602001807f496e6578697374656e7420706172742075736564206f6e2070726f647563740081525060200191505060405180910390fd5b8080600101915050610951565b6000610a60338888886113c1565b9050600073ffffffffffffffffffffffffffffffffffffffff166001600083815260200190815260200160002060000160009054906101000a900473ffffffffffffffffffffffffffffffffffffffff1673ffffffffffffffffffffffffffffffffffffffff1614610b3a576040517f08c379a00000000000000000000000000000000000000000000000000000000081526004018080602001828103825260178152602001807f50726f6475637420494420616c7265616479207573656400000000000000000081525060200191505060405180910390fd5b610b4261160b565b6040518060a001604052803373ffffffffffffffffffffffffffffffffffffffff168152602001898152602001888152602001878152602001868152509050806001600084815260200190815260200160002060008201518160000160006101000a81548173ffffffffffffffffffffffffffffffffffffffff021916908373ffffffffffffffffffffffffffffffffffffffff1602179055506020820151816001019080519060200190610bf8929190611650565b506040820151816002019080519060200190610c15929190611650565b506060820151816003019080519060200190610c32929190611650565b506080820151816004019080519060200190610c4f9291906116d0565b50905050819350505050949350505050565b6060600073ffffffffffffffffffffffffffffffffffffffff166001600084815260200190815260200160002060000160009054906101000a900473ffffffffffffffffffffffffffffffffffffffff1673ffffffffffffffffffffffffffffffffffffffff161415610d3c576040517f08c379a00000000000000000000000000000000000000000000000000000000081526004018080602001828103825260128152602001807f50726f6475637420696e6578697374656e74000000000000000000000000000081525060200191505060405180910390fd5b60016000838152602001908152602001600020600401805480602002602001604051908101604052809291908181526020018280548015610d9c57602002820191906000526020600020905b815481526020019060010190808311610d88575b50505050509050919050565b60016020528060005260406000206000915090508060000160009054906101000a900473ffffffffffffffffffffffffffffffffffffffff1690806001018054600181600116156101000203166002900480601f016020809104026020016040519081016040528092919081815260200182805460018160011615610100020316600290048015610e7a5780601f10610e4f57610100808354040283529160200191610e7a565b820191906000526020600020905b815481529060010190602001808311610e5d57829003601f168201915b505050505090806002018054600181600116156101000203166002900480601f016020809104026020016040519081016040528092919081815260200182805460018160011615610100020316600290048015610f185780601f10610eed57610100808354040283529160200191610f18565b820191906000526020600020905b815481529060010190602001808311610efb57829003601f168201915b505050505090806003018054600181600116156101000203166002900480601f016020809104026020016040519081016040528092919081815260200182805460018160011615610100020316600290048015610fb65780601f10610f8b57610100808354040283529160200191610fb6565b820191906000526020600020905b815481529060010190602001808311610f9957829003601f168201915b5050505050905084565b60006020528060005260406000206000915090508060000160009054906101000a900473ffffffffffffffffffffffffffffffffffffffff1690806001018054600181600116156101000203166002900480601f0160208091040260200160405190810160405280929190818152602001828054600181600116156101000203166002900480156110925780601f1061106757610100808354040283529160200191611092565b820191906000526020600020905b81548152906001019060200180831161107557829003601f168201915b505050505090806002018054600181600116156101000203166002900480601f0160208091040260200160405190810160405280929190818152602001828054600181600116156101000203166002900480156111305780601f1061110557610100808354040283529160200191611130565b820191906000526020600020905b81548152906001019060200180831161111357829003601f168201915b505050505090806003018054600181600116156101000203166002900480601f0160208091040260200160405190810160405280929190818152602001828054600181600116156101000203166002900480156111ce5780601f106111a3576101008083540402835291602001916111ce565b820191906000526020600020905b8154815290600101906020018083116111b157829003601f168201915b5050505050905084565b6000806111e7338686866113c1565b9050600073ffffffffffffffffffffffffffffffffffffffff1660008083815260200190815260200160002060000160009054906101000a900473ffffffffffffffffffffffffffffffffffffffff1673ffffffffffffffffffffffffffffffffffffffff16146112c0576040517f08c379a00000000000000000000000000000000000000000000000000000000081526004018080602001828103825260148152602001807f5061727420494420616c7265616479207573656400000000000000000000000081525060200191505060405180910390fd5b6112c861171d565b60405180608001604052803373ffffffffffffffffffffffffffffffffffffffff1681526020018781526020018681526020018581525090508060008084815260200190815260200160002060008201518160000160006101000a81548173ffffffffffffffffffffffffffffffffffffffff021916908373ffffffffffffffffffffffffffffffffffffffff1602179055506020820151816001019080519060200190611377929190611650565b506040820151816002019080519060200190611394929190611650565b5060608201518160030190805190602001906113b1929190611650565b5090505081925050509392505050565b6000808560601b90506060859050606085905060608590506060815183518551601460ff160101016040519080825280601f01601f19166020018201604052801561141b5781602001600182028038833980820191505090505b5090506060819050600080905060008090505b601460ff168110156114985787816014811061144657fe5b1a60f81b83838060010194508151811061145c57fe5b60200101907effffffffffffffffffffffffffffffffffffffffffffffffffffffffffffff1916908160001a905350808060010191505061142e565b600090505b865181101561150b578681815181106114b257fe5b602001015160f81c60f81b8383806001019450815181106114cf57fe5b60200101907effffffffffffffffffffffffffffffffffffffffffffffffffffffffffffff1916908160001a905350808060010191505061149d565b600090505b855181101561157e5785818151811061152557fe5b602001015160f81c60f81b83838060010194508151811061154257fe5b60200101907effffffffffffffffffffffffffffffffffffffffffffffffffffffffffffff1916908160001a9053508080600101915050611510565b600090505b84518110156115f15784818151811061159857fe5b602001015160f81c60f81b8383806001019450815181106115b557fe5b60200101907effffffffffffffffffffffffffffffffffffffffffffffffffffffffffffff1916908160001a9053508080600101915050611583565b828051906020012098505050505050505050949350505050565b6040518060a00160405280600073ffffffffffffffffffffffffffffffffffffffff168152602001606081526020016060815260200160608152602001606081525090565b828054600181600116156101000203166002900490600052602060002090601f016020900481019282601f1061169157805160ff19168380011785556116bf565b828001600101855582156116bf579182015b828111156116be5782518255916020019190600101906116a3565b5b5090506116cc919061175b565b5090565b82805482825590600052602060002090810192821561170c579160200282015b8281111561170b5782518255916020019190600101906116f0565b5b5090506117199190611780565b5090565b6040518060800160405280600073ffffffffffffffffffffffffffffffffffffffff1681526020016060815260200160608152602001606081525090565b61177d91905b80821115611779576000816000905550600101611761565b5090565b90565b6117a291905b8082111561179e576000816000905550600101611786565b5090565b9056fea265627a7a72315820fd44a50943aaf20696ec404637fb4ba7ad7a9bdb1ac78cd4169b95da6d1205e264736f6c63430005100032",
  "source": "pragma solidity >=0.4.21 <0.6.0;\r\n\r\ncontract ProductManagement {\r\n    struct Part{\r\n        address manufacturer;\r\n        string serial_number;\r\n        string part_type;\r\n        string creation_date;\r\n    }\r\n\r\n    struct Product{\r\n        address manufacturer;\r\n        string serial_number;\r\n        string product_type;\r\n        string creation_date;\r\n        bytes32[] parts;\r\n    }\r\n\r\n    mapping(bytes32 => Part) public parts;\r\n    mapping(bytes32 => Product) public products;\r\n\r\n    constructor() public {\r\n    }\r\n\r\n    function concatenateInfoAndHash(address a1, string memory s1, string memory s2, string memory s3) private returns (bytes32){\r\n        //First, get all values as bytes\r\n        bytes20 b_a1 = bytes20(a1);\r\n        bytes memory b_s1 = bytes(s1);\r\n        bytes memory b_s2 = bytes(s2);\r\n        bytes memory b_s3 = bytes(s3);\r\n\r\n        //Then calculate and reserve a space for the full string\r\n        string memory s_full = new string(b_a1.length + b_s1.length + b_s2.length + b_s3.length);\r\n        bytes memory b_full = bytes(s_full);\r\n        uint j = 0;\r\n        uint i;\r\n        for(i = 0; i < b_a1.length; i++){\r\n            b_full[j++] = b_a1[i];\r\n        }\r\n        for(i = 0; i < b_s1.length; i++){\r\n            b_full[j++] = b_s1[i];\r\n        }\r\n        for(i = 0; i < b_s2.length; i++){\r\n            b_full[j++] = b_s2[i];\r\n        }\r\n        for(i = 0; i < b_s3.length; i++){\r\n            b_full[j++] = b_s3[i];\r\n        }\r\n\r\n        //Hash the result and return\r\n        return keccak256(b_full);\r\n    }\r\n\r\n    function buildPart(string memory serial_number, string memory part_type, string memory creation_date) public returns (bytes32){\r\n        //Create hash for data and check if it exists. If it doesn't, create the part and return the ID to the user\r\n        bytes32 part_hash = concatenateInfoAndHash(msg.sender, serial_number, part_type, creation_date);\r\n        \r\n        require(parts[part_hash].manufacturer == address(0), \"Part ID already used\");\r\n\r\n        Part memory new_part = Part(msg.sender, serial_number, part_type, creation_date);\r\n        parts[part_hash] = new_part;\r\n        return part_hash;\r\n    }\r\n\r\n    function buildProduct(string memory serial_number, string memory product_type, string memory creation_date, bytes32[] memory part_array) public returns (bytes32){\r\n        //Check if all the parts exist, hash values and add to product mapping.\r\n        uint i;\r\n\trequire(part_array.length >= 1, \"no drugs in order\");\r\n        for(i = 0;i < part_array.length; i++){\r\n            require(parts[part_array[i]].manufacturer != address(0), \"Inexistent part used on product\");\r\n        }\r\n\r\n        //Create hash for data and check if exists. If it doesn't, create the part and return the ID to the user\r\n        bytes32 product_hash = concatenateInfoAndHash(msg.sender, serial_number, product_type, creation_date);\r\n        \r\n        require(products[product_hash].manufacturer == address(0), \"Product ID already used\");\r\n\r\n        Product memory new_product = Product(msg.sender, serial_number, product_type, creation_date, part_array);\r\n        products[product_hash] = new_product;\r\n        return product_hash;\r\n    }\r\n\r\n    function getParts(bytes32 product_hash) public returns (bytes32[] memory){\r\n        //The automatic getter does not return arrays, so lets create a function for that\r\n        require(products[product_hash].manufacturer != address(0), \"Product inexistent\");\r\n        return products[product_hash].parts;\r\n    }\r\n}\r\n",
  "sourcePath": "C:/Users/ROHAN/Desktop/btp/ethereum-supply-chain/contracts/ProductManagement.sol",
  "compiler": {
    "name": "solc",
    "version": "0.5.16+commit.9c3226ce.Emscripten.clang"
  },
  "schemaVersion": "3.3.3",
  "updatedAt": "2020-12-23T14:59:00.680Z",
  "networkType": "ethereum",
  "devdoc": {
    "methods": {}
  },
  "userdoc": {
    "methods": {}
  }
}